:100000000C943B000C9458000C9458000C9458002D
:100010000C9458000C9458000C9458000C94580000
:100020000C9458000C9458000C9458000C945800F0
:100030000C9458000C9458000C9458000C945800E0
:100040000C9458000C9458000C9400020C94580026
:100050000C9458000C9458000C9458000C945800C0
:100060000C9458000C94580057025E0265026F020F
:10007000790283028D0211241FBECFEFD8E0DEBFCC
:10008000CDBF11E0A0E0B1E0E8E3FAE002C00590E6
:100090000D92A632B107D9F721E0A6E2B1E001C086
:1000A0001D92A233B207E1F70E948C000C941A054E
:1000B0000C9400008AB18E7F8AB98AB182608AB9B5
:1000C000E0ECF0E01082808182608083E1ECF0E07F
:1000D0001082808188698083E2ECF0E01082808168
:1000E000866080838FEC90E09093C5008093C4007D
:1000F0000895AC0120E009C09091C00095FFFCCFAD
:100100003093C600109201012F5FFA01E20FF11D3A
:1001100030813111F1CF0895CF93DF93CDB7DEB7A2
:10012000CE56D1090FB6F894DEBF0FBECDBFF894FE
:100130000E945A008AB18C6F8AB984B1836084B9F5
:10014000789484B1836084B920E040E060E083E586
:100150000E943F028EE291E090932A018093290150
:1001600090932C0180932B0185B18B7F85B980E31F
:100170000E94A4020E94A902809327012FEF84E32A
:100180009CE0215080409040E1F700C0000085B124
:10019000846085B985B18B7F85B981E30E94A40213
:1001A0000E94A90280932801EFEFF4E32CE0E150D4
:1001B000F0402040E1F700C0000085B1846085B9BF
:1001C0006091280170E080E090E00E94C20320E08E
:1001D00030E040EA50E40E944E0420E030E04FE777
:1001E00053E40E9418034B015C016091270170E009
:1001F00080E090E00E94C20320E030E040EA50E45A
:100200000E944E0420E030E04FE753E40E941803C0
:100210006B017C01C501B4010E948A032B013C01E2
:10022000072E000C880B990B0E94C2039B01AC01A6
:10023000C501B4010E94AB0220E030E048EC52E47A
:100240000E944E040E948A038B01C701B6010E94DE
:100250008A034B015C01072E000C880B990B0E944E
:10026000C2039B01AC01C701B6010E94AB0220E0B2
:1002700030E048EC52E40E944E040E948A036B0175
:1002800080E3840DAB968FAFAB970F2EFEE26F2EFF
:10029000F02DAC966FAEAC970F2EFAE0EF2EF12C4E
:1002A000F02DC801B7010E94BB04605DAD966FAF31
:1002B000AD97805DAE968FAFAE970F2EF6E57F2E91
:1002C000F02DAF967FAEAF97E0961FAEE09781E13D
:1002D000E2E0F1E08E010F5F1F4FD80101900D9217
:1002E0008A95E1F7BE0166597F4FC8010E94070554
:1002F00080E3880DA6968FAFA697A7966FAEA797B7
:10030000C601B7010E94BB04605DA8966FAFA897B5
:10031000805DA9968FAFA997AA967FAEAA97AB9654
:100320001FAEAB97D8010D900020E9F7119782E13D
:10033000E3E1F1E001900D928A95E1F7BE016B597E
:100340007F4FC8010E940705F80101900020E9F7DE
:100350003197F182E082C8010E94790080912601E4
:100360008130B1F50091290110912A01C8010E9444
:10037000E90480930001F801108285B18B7F85B973
:1003800081E60E94A4020E94A902FFEF24E38CE010
:10039000F15020408040E1F700C0000085B184604A
:1003A00085B985B18B7F85B9809100010E94A40237
:1003B0000E94A9029FEFE4E3FCE09150E040F0408E
:1003C000E1F700C0000085B1846085B91092260174
:1003D0002BB190910001892F90E0880F991F880F11
:1003E000991F922F9370892B8BB985B19091000141
:1003F00092959695969593708C7F892B85B9B4CEFE
:100400001F920F920FB60F9211248F939F93EF9329
:10041000FF938091C60080932D0180912D018A3039
:1004200021F080912D018D3089F481E080932601A7
:10043000E0912901F0912A01108280912B01909185
:100440002C0190932A018093290110C0E091290189
:10045000F0912A0180912D01808380912901909152
:100460002A01019690932A0180932901FF91EF912F
:100470009F918F910F900FBE0F901F901895E82FAE
:1004800084FF52C084B18C6284B984B18F7E84B9F8
:100490008CB580618CBDE7708E2F90E08730910520
:1004A00008F04BC0FC01EC5CFF4F0C94CF048CB502
:1004B0008C7F8CBD8DB581608DBD3FC08CB58C7F30
:1004C0008CBD8DB58E7F8DBD38C08CB581608CBDE7
:1004D0008CB58D7F8CBD8DB581608DBD2EC08CB5EA
:1004E00081608CBD8CB58D7F8CBD8DB58E7F8DBDB3
:1004F00024C08CB58E7F8CBD8CB582608CBD8DB5D3
:1005000081608DBD1AC08CB58E7F8CBD8CB582602C
:100510008CBD8DB58E7F8DBD10C08CB583608CBDBC
:100520008DB58E7F8DBD09C084B1806184B984B1E1
:10053000837D84B98CB58F7E8CBD8CB5462B242BE6
:10054000282B20642CBD08958EBD0DB407FEFDCF71
:1005500008958EB508955058BB27AA270E94C3025C
:100560000C9414040E94060438F00E940D0420F03C
:1005700039F49F3F19F426F40C9403040EF4E0952B
:10058000E7FB0C94FD03E92F0E94250458F3BA17EA
:10059000620773078407950720F079F4A6F50C9499
:1005A00047040EF4E0950B2EBA2FA02D0B01B901D4
:1005B00090010C01CA01A0011124FF27591B99F0D9
:1005C000593F50F4503E68F11A16F040A22F232FE5
:1005D000342F4427585FF3CF469537952795A79535
:1005E000F0405395C9F77EF41F16BA0B620B730BDC
:1005F000840BBAF09150A1F0FF0FBB1F661F771F4D
:10060000881FC2F70EC0BA0F621F731F841F48F401
:10061000879577956795B795F7959E3F08F0B0CF8A
:100620009395880F08F09927EE0F97958795089571
:100630000E942C030C9414040E940D0458F00E9494
:10064000060440F029F45F3F29F00C94FD0351119A
:100650000C9448040C9403040E94250468F3992325
:10066000B1F3552391F3951B550BBB27AA276217AE
:100670007307840738F09F5F5F4F220F331F441FBB
:10068000AA1FA9F335D00E2E3AF0E0E832D09150EF
:100690005040E695001CCAF72BD0FE2F29D0660FDC
:1006A000771F881FBB1F261737074807AB07B0E81F
:1006B00009F0BB0B802DBF01FF2793585F4F3AF025
:1006C0009E3F510578F00C94FD030C9448045F3F65
:1006D000E4F3983ED4F3869577956795B795F795AB
:1006E0009F5FC9F7880F911D9695879597F9089593
:1006F000E1E0660F771F881FBB1F6217730784072F
:10070000BA0720F0621B730B840BBA0BEE1F88F73D
:10071000E09508950E9491036894B1110C944804E7
:1007200008950E942D0488F09F5798F0B92F9927BB
:10073000B751B0F0E1F0660F771F881F991F1AF0CC
:10074000BA95C9F714C0B13091F00E944704B1E0E6
:1007500008950C944704672F782F8827B85F39F0E5
:10076000B93FCCF3869577956795B395D9F73EF465
:1007700090958095709561957F4F8F4F9F4F08950D
:10078000E89409C097FB3EF490958095709561952B
:100790007F4F8F4F9F4F9923A9F0F92F96E9BB27E1
:1007A0009395F695879577956795B795F111F8CF5D
:1007B000FAF4BB0F11F460FF1BC06F5F7F4F8F4FC8
:1007C0009F4F16C0882311F096E911C0772321F0BE
:1007D0009EE8872F762F05C0662371F096E8862F56
:1007E00070E060E02AF09A95660F771F881FDAF7AD
:1007F000880F9695879597F9089597F99F6780E8F0
:1008000070E060E008959FEF80EC089500240A9462
:100810001616170618060906089500240A941216DB
:100820001306140605060895092E0394000C11F40E
:10083000882352F0BB0F40F4BF2B11F460FF04C0BB
:100840006F5F7F4F8F4F9F4F089557FD9058440F14
:10085000551F59F05F3F71F04795880F97FB991F1F
:1008600061F09F3F79F087950895121613061406DC
:10087000551FF2CF4695F1DF08C016161706180669
:10088000991FF1CF86957105610508940895E89444
:10089000BB2766277727CB0197F908950E9461044B
:1008A0000C9414040E94060438F00E940D0420F0F9
:1008B000952311F00C94FD030C94030411240C9463
:1008C00048040E94250470F3959FC1F3950F50E0F2
:1008D000551F629FF001729FBB27F00DB11D639FF2
:1008E000AA27F00DB11DAA1F649F6627B00DA11D98
:1008F000661F829F2227B00DA11D621F739FB00D3E
:10090000A11D621F839FA00D611D221F749F3327AD
:10091000A00D611D231F849F600D211D822F762F46
:100920006A2F11249F5750409AF0F1F088234AF023
:10093000EE0FFF1FBB1F661F771F881F915050408F
:10094000A9F79E3F510580F00C94FD030C944804D8
:100950005F3FE4F3983ED4F3869577956795B79516
:10096000F795E7959F5FC1F7FE2B880F911D969530
:10097000879597F9089597FB072E16F4009407D0F2
:1009800077FD09D00E94D50407FC05D03EF4909570
:1009900081959F4F0895709561957F4F0895EE0F53
:1009A000FF1F0590F491E02D0994AA1BBB1B51E198
:1009B00007C0AA1FBB1FA617B70710F0A61BB70BCF
:1009C000881F991F5A95A9F780959095BC01CD0174
:1009D0000895FC0188279927E89421912032E9F3B2
:1009E000293010F02E30C8F32B3241F02D3239F47B
:1009F000689404C00E941205820F911D219120531A
:100A00002A30C0F31EF4909581959F4F0895FB0105
:100A1000DC010D900020E9F7119701900D92002064
:100A2000E1F708957AE0979F902D879F802D910D93
:080A300011240895F894FFCF92
:100A3800FF01506F74656E63696F6D6574726F2026
:100A4800313A0020506F74656E63696F6D6574721A
:060A58006F20323A00009D
:00000001FF
