:100000000C943B000C9458000C9458000C9458002D
:100010000C9458000C9458000C9458000C94580000
:100020000C9458000C9458000C9458000C945800F0
:100030000C9458000C9458000C9458000C945800E0
:100040000C9458000C9458000C94CA010C9458005D
:100050000C9458000C9458000C9458000C945800C0
:100060000C9458000C945800F501FC0103020D0299
:10007000170221022B0211241FBECFEFD8E0DEBFF2
:10008000CDBF11E0A0E0B1E0E8E2F9E002C00590E8
:100090000D92A432B107D9F721E0A4E2B1E001C08A
:1000A0001D92A832B207E1F70E948C000C949204D2
:1000B0000C9400008AB18E7F8AB98AB182608AB9B5
:1000C000E0ECF0E01082808182608083E1ECF0E07F
:1000D0001082808188698083E2ECF0E01082808168
:1000E000866080838FEC90E09093C5008093C4007D
:1000F0000895AC0120E009C09091C00095FFFCCFAD
:100100003093C600109200012F5FFA01E20FF11D3B
:1001100030813111F1CF0895CF93DF93CDB7DEB7A2
:10012000CE56D1090FB6F894DEBF0FBECDBFF894FE
:100130000E945A008AB18C6F8AB984B1836084B9F5
:10014000789484B1836084B920E040E060E083E586
:100150000E94DD0185B18B7F85B980E00E9442025B
:100160000E9444028093260185B1846085B92FEFF7
:1001700084E39CE0215080409040E1F700C0000003
:1001800085B18B7F85B981E30E9442020E944402BF
:100190008093250185B1846085B92FEF84E39CE0CD
:1001A000215080409040E1F700C00000609126019E
:1001B00070E080E090E00E94600320E030E040EAE0
:1001C00050E40E94EC0320E030E04FE753E40E944B
:1001D000B6024B015C016091250170E080E090E087
:1001E0000E94600320E030E040EA50E40E94EC030B
:1001F00020E030E04FE753E40E94B6026B017C013F
:10020000C501B4010E9428032B013C01072E000CFC
:10021000880B990B0E9460039B01AC01C501B401DE
:100220000E94490220E030E048EC52E40E94EC03D6
:100230000E9428038B01C701B6010E9428034B01CD
:100240005C01072E000C880B990B0E9460039B0138
:10025000AC01C701B6010E94490220E030E048EC41
:1002600052E40E94EC030E9428036B0180E3840D9A
:10027000AB968FAFAB970F2EFEE26F2EF02DAC96A4
:100280006FAEAC970F2EFAE0EF2EF12CF02DC801D7
:10029000B7010E945904605DAD966FAFAD97805D68
:1002A000AE968FAFAE970F2EF6E57F2EF02DAF9660
:1002B0007FAEAF97E0961FAEE09781E1E1E0F1E01D
:1002C0008E010F5F1F4FD80101900D928A95E1F7C3
:1002D000BE0166597F4FC8010E94870480E3880DE4
:1002E000A6968FAFA697A7966FAEA797C601B70140
:1002F0000E945904605DA8966FAFA897805DA9968B
:100300008FAFA997AA967FAEAA97AB961FAEAB9771
:10031000D8010D900020E9F7119782E1E2E1F1E0C8
:1003200001900D928A95E1F7BE016B597F4FC8018C
:100330000E948704F80101900020E9F73197F182CB
:10034000E082C8010E94790080912401813009F087
:1003500001CF81E60E944202809127010E94420261
:100360002BB190912701892F90E0880F991F880F5A
:10037000991F922F9370892B8BB995B1809127018A
:100380009C7F8295869586958370892B85B910927E
:100390002401E0CE1F920F920FB60F9211248F937B
:1003A00081E0809324018091C600809327018F9182
:1003B0000F900FBE0F901F901895E82F84FF52C02A
:1003C00084B18C6284B984B18F7E84B98CB580612C
:1003D0008CBDE7708E2F90E08730910508F04BC000
:1003E000FC01EC5CFF4F0C946D048CB58C7F8CBDD4
:1003F0008DB581608DBD3FC08CB58C7F8CBD8DB5BA
:100400008E7F8DBD38C08CB581608CBD8CB58D7FE5
:100410008CBD8DB581608DBD2EC08CB581608CBDCD
:100420008CB58D7F8CBD8DB58E7F8DBD24C08CB578
:100430008E7F8CBD8CB582608CBD8DB581608DBD8D
:100440001AC08CB58E7F8CBD8CB582608CBD8DB58D
:100450008E7F8DBD10C08CB583608CBD8DB58E7FB9
:100460008DBD09C084B1806184B984B1837D84B9B4
:100470008CB58F7E8CBD8CB5462B242B282B20640D
:100480002CBD08958EBD08950DB407FEFDCF8EB529
:1004900008955058BB27AA270E9461020C94B2030A
:1004A0000E94A40338F00E94AB0320F039F49F3F70
:1004B00019F426F40C94A1030EF4E095E7FB0C94D8
:1004C0009B03E92F0E94C30358F3BA17620773070F
:1004D0008407950720F079F4A6F50C94E5030EF453
:1004E000E0950B2EBA2FA02D0B01B90190010C0144
:1004F000CA01A0011124FF27591B99F0593F50F45C
:10050000503E68F11A16F040A22F232F342F4427B3
:10051000585FF3CF469537952795A795F0405395AB
:10052000C9F77EF41F16BA0B620B730B840BBAF07B
:100530009150A1F0FF0FBB1F661F771F881FC2F7E6
:100540000EC0BA0F621F731F841F48F487957795FA
:100550006795B795F7959E3F08F0B0CF9395880FB4
:1005600008F09927EE0F9795879508950E94CA0283
:100570000C94B2030E94AB0358F00E94A40340F015
:1005800029F45F3F29F00C949B0351110C94E6036E
:100590000C94A1030E94C30368F39923B1F355237C
:1005A00091F3951B550BBB27AA2762177307840786
:1005B00038F09F5F5F4F220F331F441FAA1FA9F31C
:1005C00035D00E2E3AF0E0E832D091505040E6950A
:1005D000001CCAF72BD0FE2F29D0660F771F881F6B
:1005E000BB1F261737074807AB07B0E809F0BB0B5E
:1005F000802DBF01FF2793585F4F3AF09E3F510572
:1006000078F00C949B030C94E6035F3FE4F3983E70
:10061000D4F3869577956795B795F7959F5FC9F75A
:10062000880F911D9695879597F90895E1E0660FDB
:10063000771F881FBB1F621773078407BA0720F054
:10064000621B730B840BBA0BEE1F88F7E0950895BD
:100650000E942F036894B1110C94E60308950E9440
:10066000CB0388F09F5798F0B92F9927B751B0F076
:10067000E1F0660F771F881F991F1AF0BA95C9F726
:1006800014C0B13091F00E94E503B1E008950C94DC
:10069000E503672F782F8827B85F39F0B93FCCF38F
:1006A000869577956795B395D9F73EF490958095A3
:1006B000709561957F4F8F4F9F4F0895E89409C0C3
:1006C00097FB3EF490958095709561957F4F8F4F85
:1006D0009F4F9923A9F0F92F96E9BB279395F6959B
:1006E000879577956795B795F111F8CFFAF4BB0F19
:1006F00011F460FF1BC06F5F7F4F8F4F9F4F16C07D
:10070000882311F096E911C0772321F09EE8872F06
:10071000762F05C0662371F096E8862F70E060E0C2
:100720002AF09A95660F771F881FDAF7880F96953B
:10073000879597F9089597F99F6780E870E060E0E2
:1007400008959FEF80EC089500240A94161617066A
:1007500018060906089500240A94121613061406B2
:1007600005060895092E0394000C11F4882352F015
:10077000BB0F40F4BF2B11F460FF04C06F5F7F4FCD
:100780008F4F9F4F089557FD9058440F551F59F0B4
:100790005F3F71F04795880F97FB991F61F09F3F6E
:1007A00079F087950895121613061406551FF2CF97
:1007B0004695F1DF08C0161617061806991FF1CFE7
:1007C00086957105610508940895E894BB2766270E
:1007D0007727CB0197F908950E94FF030C94B20389
:1007E0000E94A40338F00E94AB0320F0952311F07F
:1007F0000C949B030C94A10311240C94E6030E9417
:10080000C30370F3959FC1F3950F50E0551F629F8E
:10081000F001729FBB27F00DB11D639FAA27F00D59
:10082000B11DAA1F649F6627B00DA11D661F829F80
:100830002227B00DA11D621F739FB00DA11D621F65
:10084000839FA00D611D221F749F3327A00D611D82
:10085000231F849F600D211D822F762F6A2F112464
:100860009F5750409AF0F1F088234AF0EE0FFF1F97
:10087000BB1F661F771F881F91505040A9F79E3FEE
:10088000510580F00C949B030C94E6035F3FE4F366
:10089000983ED4F3869577956795B795F795E79544
:1008A0009F5FC1F7FE2B880F911D9695879597F94D
:1008B000089597FB072E16F4009407D077FD09D012
:1008C0000E94730407FC05D03EF4909581959F4FDC
:1008D0000895709561957F4F0895EE0FFF1F059065
:1008E000F491E02D0994AA1BBB1B51E107C0AA1F7C
:1008F000BB1FA617B70710F0A61BB70B881F991FC1
:100900005A95A9F780959095BC01CD010895FB01FA
:10091000DC010D900020E9F7119701900D92002065
:08092000E1F70895F894FFCF00
:1009280001506F74656E63696F6D6574726F203105
:100938003A0020506F74656E63696F6D6574726FED
:0409480020323A001F
:00000001FF
